:100000000C943A000C9457000C9457000C94570031
:100010000C9457000C9457000C9457000C94570004
:100020000C9457000C9457000C9457000C945700F4
:100030000C9457000C9457000C9457000C945700E4
:100040000C9457000C9457000C9457000C945700D4
:100050000C9457000C9457000C9457000C945700C4
:100060000C9457000C9457000C9457000C945700B4
:100070000C94570011241FBECFEFD4E0DEBFCDBFDC
:1000800013E0A0E0B1E0EAE6FEE002C005900D92C8
:10009000A434B107D9F713E0A4E4B3E001C01D9282
:1000A000AD35B107E1F70E9497060C9433070C9425
:1000B00000000E9415010E94C2000E94B10380E16D
:1000C00097E20E94020480E197E20E947E0684E3A8
:1000D00091E00E94FC058AE00E94EC0581E090E03E
:1000E0000E94F2058CE393E00E94DD0580914503B8
:1000F00081112BC080914403811127C00E941704F5
:100100000E9401060E94290384E00E94F9028823CC
:1001100051F089E50E94B00081E090914503911172
:1001200080E0809345030E94A600882359F00E9436
:10013000A800893539F481E090914403911180E061
:10014000809344030E946902D1CF08950C94DC018E
:100150000C94FD010C94E2010C94E8010C94EE0166
:100160000E94EE010E94E8018823E1F38CE291E015
:100170000197F1F70E94DC0181110C94A800089509
:100180000C940402CF93DF9300D01F92CDB7DEB75B
:1001900080ED90E09A83898388E08B83509A589A07
:1001A0000E94B1018FE690E00E94480181E090E05A
:1001B0000E94A00161E070E081E090E00E948C016B
:1001C0000E947801CE0101960E94C4010F900F9009
:1001D0000F90DF91CF910895CF93DF93D62FFB013E
:1001E00060E070E0A1E0B0E05E2F5D1B5417B8F452
:1001F000C191BD010C2E02C0660F771F0A94E2F771
:100200006F5F7F4F76956795680F791F02C076956F
:100210006795CA95E2F76F3F710509F028F7F90174
:100220006083852FDF91CF910895E1E6F0E080E8CB
:1002300080831082A89584B7877F84BFE0E6F0E0D2
:10024000808188618083108208951092800084E00C
:10025000809381001092850010928400089580910F
:100260008400909185000895AC0180918400909164
:1002700085009C01241B350B283E3340B0F70895C0
:100280002091840030918500820F931F0C943401DB
:10029000CF93DF931F92CDB7DEB79E012F5F3F4F05
:1002A00045E065E173E00E94EC0091E0980F9093C7
:1002B00002019981915097BD18BC95B5977039F09E
:1002C00025B5909102019770287F922B95BD2981C9
:1002D00030E0E82FF0E0EB5EFC4FC901008002C087
:1002E000880F991F0A94E2F70F90DF91CF9108953C
:1002F00085B3897F85BB95B5809102018770987F12
:10030000892B85BD089585B5887F85BD089585B302
:1003100082FB882780F90895009719F0019741F032
:10032000089584B56295660F660F607C8F7305C073
:1003300084B563706295607F8F7C682B64BD08957F
:10034000009741F0019759F484B58E7F84BD84B540
:10035000826002C084B58C7F84BD81E0089580E016
:10036000089514BC15BC16BC18BC81E090E00E9436
:10037000A00181E008959C01215031093093CD0006
:1003800081508093CC000895CF93DF93EC01888156
:1003900099810E94BB018A819BEF980F943008F0ED
:1003A00088E098E19093C9008550880F8093CA0037
:1003B00081E0DF91CF9108958091C800881F882740
:1003C000881F08958091C80085FB882780F90895CB
:1003D0008091C80086FB882780F90895CF93C82FA5
:1003E0000E94E2018823E1F39091C8009064909309
:1003F000C800C093CE00CF9108958091C80087FFB8
:10040000FCCF8091CE000895CF93DF93EC018991CA
:10041000882319F00E94EE01FACFDF91CF91089561
:100420008530A0F4673090F421E030E0062E01C062
:10043000220F0A94EAF7E82FF0E0E95BFC4F822FE5
:100440008095908189234111822B80830895853086
:1004500088F4673078F4E82FF0E0E95BFC4F21E0A6
:1004600030E0062E01C0220F0A94EAF79081922311
:1004700081E009F480E0089560914603E62FF0E002
:10048000E95BFC4F80810E948B02809146038F5F65
:10049000853018F48093460308951092460308951A
:1004A00010924703109248031092490310924A0396
:1004B00010924B0308950E9469020C945002FC01B3
:1004C000FF2784A1892B84A385A1892B85A381E0A3
:1004D0000895CF93DF93C4E2D3E0899199910E946C
:1004E0005F0283E0C233D807C1F783E090E40E9443
:1004F0005F0280E090E80E945F0283E090E10E944A
:100500005F0283E090E80E945F0283E090E2DF9167
:10051000CF910C945F02E0914C03F0E0EE0FFF1FCF
:10052000E65EFC4F20813181F901FF2795A1932BD5
:1005300095A3E4E2F3E020813181D901BB2780FF5C
:1005400007C095962C919597932F9095922304C070
:1005500095969C919597932B95969C93869532961C
:1005600093E0E233F90739F7E62FF0E0EE0FFF1FD3
:10057000E65EFC4F80819181FC01FF2725A1892F38
:100580008095822385A360934C03089562307105A2
:1005900011F160F46130710551F5FC01FF2784A170
:1005A0009095892384A385A189231EC0633071059A
:1005B00041F064307105D9F4FC01FF2784A1892B37
:1005C00010C0FC01FF2784A1892B84A325A1892FBA
:1005D0008095822309C0FC01FF2784A1292F209543
:1005E000822384A385A1892B85A381E0089580E0DF
:1005F0000895E82FF0E0EE0FFF1FE35BFC4F8081D2
:10060000882321F0818191E0892701C080E08170F9
:100610000895E82FF0E0EE0FFF1FE35BFC4F8081B1
:10062000811102C0818101C080E081700895E82FAE
:10063000F0E0EE0FFF1FE35BFC4F80810895E82F91
:10064000F0E0EE0FFF1FE35BFC4F908181E0892714
:1006500008954F925F927F928F929F92AF92BF9236
:10066000CF92DF92EF92FF920F931F93CF93DF937E
:1006700000D0CDB7DEB75DE4452E53E0552E6EE4D5
:10068000E62E63E0F62E72E3A72E73E0B72EE6E0C7
:100690007E2EF2018081F7018083F5010191119195
:1006A0005F016801DD24F60184A1812E992425A132
:1006B00030E02821392141E0232B09F440E090E08B
:1006C00088219921892B29F0442341F024E030E04E
:1006D0000AC0442331F022E030E005C023E030E0DE
:1006E00002C021E030E064E070E0C80129833A8371
:1006F0000E94C60262E070E0C8010E94C602872D17
:100700008A95F1F7F60183A190E08821992141E0D3
:1007100029813A81892B09F040E0F2014083B90137
:10072000C8010E94C602F2E04F0E511C82E0E80EA2
:10073000F11CE7E54E16E3E05E0609F0AACF0F9044
:100740000F90DF91CF911F910F91FF90EF90DF906D
:10075000CF90BF90AF909F908F907F905F904F9081
:1007600008950895009789F0FC012381621B67FDBD
:1007700009C0772767FD7095248130E081E062171A
:1007800073070CF080E08170089580E00895CF93A6
:10079000DF93FC01822F309789F19181491770F521
:1007A0002281821758F52381621B67FD27C0A62F7F
:1007B000BB27A7FDB095C481D0E0AC17BD07F4F40A
:1007C000692F0E94B506480F658170E0CD010E9437
:1007D000BE06DC011696842F869586958695AE0F0B
:1007E000BF1FA80FB11D2C9130E0477002C0359596
:1007F00027954A95E2F7822F817001C080E0DF9152
:10080000CF910895CF93DF93EC010E9425019E01C3
:1008100040E050E062E17AE780E090E00E94E30689
:1008200030935A0320935903DF91CF91089580911B
:100830005703909158030E9434018091570390917F
:1008400058032091590330915A03820F931F9093BC
:10085000580380935703089541E0611101C040E0BF
:10086000692F0C941002692F0C94270241E061114A
:1008700001C040E0692F0C9410026F927F928F921A
:100880009F92AF92BF92CF92DF92EF92FF920F931F
:100890001F93CF93DF931F92CDB7DEB7862EB42E72
:1008A0006C01862F992787FD90958C199109C7FCBB
:1008B0009395072F112707FD10950D191109D7FCE6
:1008C000139597FD03C0AA24A39402C0AA24AA9456
:1008D00017FD03C09924939402C099249A943C0173
:1008E00097FF03C071946194710817FF03C01195BD
:1008F000019511096016710694F07301F594E7945F
:10090000C81409F16B2DC6010E943604E01AF10AE1
:10091000F7FE03C0E60CF71CD90CCA0CF1CF780126
:10092000F594E794D71679F06B2DC60179830E9470
:100930003604E618F7087981F7FE03C0E00EF11ED1
:10094000CA0CD90CEFCF6B2DC6010F90DF91CF9160
:100950001F910F91FF90EF90DF90CF90BF90AF90DD
:100960009F908F907F906F900C943604FF920F931E
:100970001F93CF93DF93182FF92E062FC72FD42F55
:10098000792F0E943D044D2F612F7C2F812F9F2DA9
:100990000E943D044D2F602F7C2F802F9F2D0E94A1
:1009A0003D044D2F602F7C2F812F9C2F0E943D04F2
:1009B000DF91CF911F910F91FF9008950E945002F7
:1009C0001092140110920F010895DF92EF92FF929E
:1009D0000F931F93CF93DF93E82E8B01F62ED12E2A
:1009E0002091050130910601D0E02130310599F5C3
:1009F000D12EDD1AE0910B01F0910C018181C0E054
:100A0000D817B8F4E0910B01F0910C018281C8175E
:100A100070F42C2F4D2F6E2DCF010E94C703682F2D
:100A20008C2F800F9D2D0E943604CF5FEBCFDF5FB0
:100A3000DFCFE0910B01F0910C018281C81740F4E7
:100A400060E08C2F800F9D2D0E943604CF5FF1CF88
:100A5000DA9430C0DF5FFD2EF00EE0910B01F091D3
:100A60000C018181C0E0D817A8F4E0910B01F0914E
:100A70000C018281C81770F72C2F4D2F6E2DCF01DE
:100A80000E94C703682F8F2D9C2F910F0E94360460
:100A9000CF5FEBCFE0910B01F0910C018281C81781
:100AA00040F460E08F2D9C2F910F0E943604CF5FA1
:100AB000F1CFF3948F2D9D2DDF91CF911F910F9149
:100AC000FF90EF90DF9008951F93CF93DF93182F3F
:100AD000EC019C2F911B8991882349F00E94E50429
:100AE000BC019C2F911B653014F477FFF2CF892F46
:100AF000DF91CF911F9108950F931F93CF93DF93B1
:100B0000EC019B0110920F01409310011092130110
:100B100000910B0110910C010115110509F448C059
:100B2000F80181816091090170910A0190E00E94B1
:100B3000BE06BC0180910D0190910E010E94CF066E
:100B4000CB016AE070E00E94BE0690931201809390
:100B50001101309308012093070140E250E0BE01EB
:100B600084E191E00E9424078091030190910401A7
:100B70000197F1F4FE0101900020E9F7CF01019700
:100B8000F801618170E06F5F7F4F8C1B0E94B5069A
:100B9000815020910501309106012130310511F479
:100BA00097E001C095E0981718F48EEF8093130139
:100BB000DF91CF911F910F91089520910501309100
:100BC00006012130310511F476E001C070E04FEFED
:100BD00060E00E947C05089590E090930A01809364
:100BE000090108959093040180930301089590935F
:100BF000060180930501089590930C0180930B01E9
:100C00000895CF9380915B0390915C03019690933C
:100C10005C0380935B0320911101309112018217D4
:100C2000930708F468C010925C0310925B03E09194
:100C30000F01F0E0ED5FFE4F818981110AC08091C4
:100C40001001823008F457C0815080931001109237
:100C50000F01C0910F018C2F90E0FC01ED5FFE4F62
:100C60002189222309F447C0209103013091040116
:100C7000409113012115310521F02130310589F012
:100C800022C0411120C060910701709108018C5E63
:100C90009E4F0E9464059FEF9C0F980F90930F0149
:100CA00012C06091070170910801209105013091F7
:100CB00006012130310511F4740F01C0641B8C5EF4
:100CC0009E4F0E946405209113012F5F2093130112
:100CD000332727FD3095E0910B01F0910C018181C4
:100CE00090E0821793073CF41092130180910F015A
:100CF0008F5F80930F01CF910C943C0290930E0173
:100D000080930D010E945B0284E190E090930A01C0
:100D1000809309010C94DE04811105C0662311F053
:100D2000429A0895429808953A9A429A08950E94E4
:100D300015010E94C2000E94B10380E197E20E9467
:100D4000020480E197E20E947E0684E391E00E9423
:100D5000FC058AE00E94EC0581E090E00E94F2052B
:100D60000E94590080E090E00895002480FD060E66
:100D7000660F11F08695D1F7802D08950024552730
:100D800004C0080E591F880F991F009729F0769507
:100D90006795B8F37105B9F7802D952F0895AA1BB3
:100DA000BB1B51E107C0AA1FBB1FA617B70710F056
:100DB000A61BB70B881F991F5A95A9F78095909588
:100DC000BC01CD010895052E97FB1EF400940E94EE
:100DD000FA0657FD07D00E94020707FC03D04EF425
:100DE0000C94FA0650954095309521953F4F4F4F02
:100DF0005F4F089590958095709561957F4F8F4FC7
:100E00009F4F0895A1E21A2EAA1BBB1BFD010DC026
:100E1000AA1FBB1FEE1FFF1FA217B307E407F507AA
:100E200020F0A21BB30BE40BF50B661F771F881F86
:100E3000991F1A9469F760957095809590959B011C
:100E4000AC01BD01CF010895FB01DC0141505040D0
:100E500048F001900D920020C9F701C01D92415049
:0A0E60005040E0F70895F894FFCF2A
:100E6A000101010000000000001400000000000061
:100E7A000000000000000000000000000000000068
:100E8A000000000000000000000000000000000058
:100E9A0000000000010507205F050000000000C6F1
:100EAA00186380014A290000004A7DF59502C4179B
:100EBA00471F016322223206261551930586080030
:100ECA00000088082108028220848800805457097B
:100EDA000080904F0800000060880000800F00002A
:100EEA000000008C0100222202002EE63AA303C46D
:100EFA00104288032E4244C4072E4207A30388A93E
:100F0A00F411023F8407A3032E8617A3033F42442A
:100F1A0008012E4617A3032E460FA303C018600C20
:100F2A0000C0186088008888200802007CF0010050
:100F3A0082208888002E424400012E425BAB034483
:100F4A00C51F63042FC617E3032E8610A2032FC6FC
:100F5A0018E3033F8417C2073F841742002E861EF8
:100F6A00A30731C61F63048E10428803104218A3D8
:100F7A00033195515204218410C20771D71A6304B0
:100F8A0071D61C63042EC618A3032FC61742002E5F
:100F9A00C65893052FC61763042E0607A3039F108E
:100FAA0042080131C618A30331C618150131C65AC1
:100FBA00AB02312AA26204312A4208011F2222C24C
:100FCA0007278410C20120088220000E2184900382
:100FDA004445000000000000C00782200000000015
:100FEA0038E8A30721B419E30300B810A20310DA02
:100FFA001CA30700B8F883034C8A238400C0C7E8FF
:10100A00A10321B4196304041842880308308492A6
:10101A000121A4324A02861042880300AC5A6304B2
:10102A0000B419630400B818A30300BCF842000016
:10103A00D8EC210400B419420000B8E0E003421CD5
:10104A0021240300C418B30500C418150100C45AAA
:10105A00AB02004445540400C4E8A103007C44C424
:10106A00078810410802841042080182104488004F
:10107A0000888A0000000306080A03400080031063
:10108A000380032000400020001000080004000232
:10109A00000103800340032000800310526561644D
:0410AA00793F20006A
:00000001FF
